:020000040800F2
:100000000050002025030008BD010008BF010008C2
:10001000C1010008C3010008C5010008000000007C
:10002000000000000000000000000000C701000800
:10003000C901000800000000CB010008CD01000844
:1000400069030008690300086903000869030008E0
:1000500069030008690300086903000869030008D0
:1000600069030008690300086903000869030008C0
:1000700069030008690300086903000869030008B0
:1000800069030008690300086903000869030008A0
:100090006903000869030008690300086903000890
:1000A0006903000869030008690300086903000880
:1000B0006903000869030008690300086903000870
:1000C0006903000869030008690300086903000860
:1000D0006903000869030008690300086903000850
:1000E0006903000869030008690300086903000840
:1000F00008B54FF4C06000F08DF900F0E1F800F0B1
:1001000065FB4FF4E13000F0B7FB264B2648196839
:1001100000F088FC254800F00BFD00F04DFC00F0DD
:100120004FFC4FF4FA7000F08BFB214800F05CFAB2
:10013000052000F000FB01221046114600F0BCFA39
:100140000A2000F07DFB012000F0F5FA022000F00B
:10015000F2FA032000F0EFFA042000F0ECFA082095
:1001600000F0E9FA092000F0E6FA012000F008FBAF
:10017000082000F005FB0F4D0F4C022000F0C6FADE
:10018000284600F0D5FC40F6B83000F059FB00F0EE
:10019000C5FA204600F0CCFC40F6B83000F050FB29
:1001A000EBE700BF100000203C1A00084B1A0008C3
:1001B0000024F400751A0008821A0008FEE7FEE722
:1001C000FEE7FEE7FEE770477047704770470000A4
:1001D000374B82B01A6842F001021A605968354AFA
:1001E0000A405A601A6822F0847222F480321A603F
:1001F0001A6822F480221A605A6822F4FE025A60B9
:100200004FF41F029A600022009201921A6842F491
:1002100080321A601A6802F400320192009A0132A8
:100220000092019A1AB9009AB2F5A06FF2D11A6839
:1002300012F4003218BF01220192019A012A30D132
:100240001D4A116841F010011160116821F003018D
:100250001160116841F0020111605A685A605A68D1
:100260005A605A6842F480625A605A6822F47C12DA
:100270005A605A6842F4E8125A601A6842F0807272
:100280001A601A689201FCD55A6822F003025A607B
:100290005A6842F002025A605A6802F00C02082AB8
:1002A000FAD14FF00062054B9A6002B0704700BF70
:1002B000001002400000FFF80020024000ED00E0C6
:1002C0001249134A4B6803F00C03082B0AD0114B58
:1002D00013604B681049C3F30313C95C1368CB4028
:1002E000136070474B684868C3F38343C00303F14E
:1002F000020305D409480068C00604D5054803E098
:1003000048688003FAD506484343E1E700100240FD
:100310001000002000127A00000000200038024087
:1003200000093D00002103E00A4B5B5843500431B3
:1003300009480A4B42189A42F6D3094A02E00023C0
:1003400042F8043B074B9A42F9D3FFF741FFFFF70E
:10035000CFFE70472C1B00080000002094000020F6
:1003600094000020B8000020FEE72DE9F041CB7892
:100370000E88DA0648BF8A7803F00F0548BF154398
:100380000A78D2B100214FF0010C4FF00F0E026835
:100390000CFA01F737EA06040BD18C000EFA04F8C8
:1003A00022EA080205FA04F4282B42EA040224D1C6
:1003B000476101310829EBD10260FF2E1BD90824C7
:1003C0004FF0010C4FF00F0E41680CFA04F737EABA
:1003D00006020CD1A200203A0EFA02F821EA080126
:1003E00005FA02F2282B41EA02010AD147610134E1
:1003F000102CEAD14160BDE8F081482B08BF0761AD
:10040000D7E7482B08BF0761F1E7016170474161F9
:1004100070470000034B40F0BF6040F40030D860EC
:10042000704700BF00ED00E0044B04281A680CBFC1
:1004300042F0040222F004021A60704710E000E06B
:100440001D4A10B5536803F00C03082B1FD01B4B3B
:10045000036053681A4CC3F30313E15C0368CB4099
:1004600043605168C1F30221615C23FA01F18160AC
:100470005168C1F3C221615CCB40C360526811492D
:10048000C2F381328A5CB3FBF2F3036110BD53689F
:100490005168C3F38343C90303F1020305D40A4936
:1004A0000968CC0604D5054903E051688903FAD5EB
:1004B00006494B43CCE700BF0010024000127A000F
:1004C00018000020140000200038024000093D0000
:1004D000044B9A6911B110439861704722EA0000F9
:1004E000FAE700BF00100240038810B503F4415240
:1004F0004C880B8823438C882343CC8823430C8966
:1005000023434C8923438C892343CC8923431343BE
:100510009BB203800B8A038210BD038821B19BB27A
:1005200043F040030380704723F040031B041B0C7F
:10053000F8E7000030B50D460446038A8A899BB26D
:10054000C98823F440530B4303828389A98823F489
:10055000B05323F00C031B041B0C0B43298987B0F9
:100560000B4369890B439BB28381838A9BB223F43B
:1005700040731343838201A8FFF762FFDDE9032381
:100580000D498C4208BF1A46192353432A6892002A
:10059000B3FBF2F36422B3FBF2F102FB11331B0154
:1005A0003233B3FBF2F303F00F0343EA01139BB2C0
:1005B000238107B030BD00BF00380140838921B1DD
:1005C0009BB243F400538381704723F400531B0410
:1005D0001B0CF8E7C1F308018180704703881942BA
:1005E00014BF012000207047014B1860704700BF06
:1005F0002800002038B505460C46002000F080F9A0
:1006000045F0800000F0F4F900F076F900F074F99C
:10061000204600F0EDF9012000F072F900F06CF9CD
:1006200000F06AF9BDE8384000F066B970B50646DA
:1006300000200C46154600F063F946F0800000F0FB
:10064000D7F900F059F900F057F92544AC420AD126
:10065000012000F055F900F04FF900F04DF900F0DD
:100660004BF9002070BD14F8010B00F0C1F9EDE763
:1006700070B5064600200C46154600F041F930469C
:1006800000F0B6F900F038F900F036F900F034F96E
:100690002544AC420AD1012000F032F900F02CF9D7
:1006A00000F02AF900F028F9002070BDFF2000F0CA
:1006B0009FF904F8010BECE7002918BF802110B561
:1006C00008B141F0400102F01F020A4353B2D1B217
:1006D00002F0C002802A02D005D8002B05DB094BAE
:1006E000094A1A6001E0C02AF9D04820FFF782FFCA
:1006F0004CF25034013CA4B200F0FEF8002CF9D1C9
:1007000010BD00BF2C00002000D8B805024B0146E8
:1007100018704A20FFF76EBF9400002008B5002033
:1007200000F0EEF800F0E8F800F0E6F8BDE8084068
:10073000012000F0E5B8032337B504228DF804301A
:100740004AF201538DF805000DEB02014520ADF88A
:1007500006300B24FFF76AFF013C0FD04FF47A7587
:1007600000F0CAF8013DFBD1042245200DEB020147
:10077000FFF77EFF9DF807305A2BEDD103B030BD57
:10078000012337B504228DF804304AF201538DF865
:1007900005000DEB02014520ADF806300B24FFF7F4
:1007A00045FF013C0FD04FF47A7500F0A5F8013DEC
:1007B000FBD1042245200DEB0201FFF759FF9DF804
:1007C00007305A2BEDD103B030BD000008B56FF0F3
:1007D0000400FFF729FE084B084A1B68B3FBF2F33D
:1007E000074ADBB21370C3EB431203EB8203054AE3
:1007F000DB00138008BD00BF1000002000127A004B
:10080000980000209600002000220B4B1B785843D4
:100810000A4B58609A601A6842F001021A601A681E
:1008200002F00112012AFAD01A6822F001021A60BD
:1008300000229A60704700BF9800002010E000E09E
:1008400000220B4B1B8858430A4B58609A601A6869
:1008500042F001021A601A6802F00112012AFAD06D
:100860001A6822F001021A6000229A60704700BFE5
:100870009600002010E000E010B5012186B004468B
:1008800044F20400FFF724FE0C4B01A90C4801932D
:10089000FFF76BFD00234FF400220294094C02A9DC
:1008A0002046CDE90332ADF81430FFF743FE0121B5
:1008B0002046FFF783FE06B010BD00BF00020318FC
:1008C0000008014000380140F8B50E4614460025E6
:1008D000084FA54201DB2046F8BD40210548FFF73F
:1008E0007DFE0028F9D07157384689B2FFF772FEB5
:1008F0000135EEE7003801400120FFF785BF000019
:10090000102110B10248FFF780BD0148FFF77FBDFD
:100910000008014070B5002586B01222064629461F
:1009200001A8214C009500F075F8012141F2040066
:10093000FFF7CEFD1D4B694620460093FFF715FDDE
:100940004023ADF800300423694620468DF803307B
:10095000FFF70BFD164B694620460093FFF705FD98
:10096000144B204610210093FFF74FFD69462046A7
:10097000FFF7FBFC4FF08273CDE901354FF00073B8
:100980000393072304F52054204601A9ADF8143041
:10099000ADF81060ADF81250FFF7A6FD012120461A
:1009A000FFF7BBFD06B070BD000801402000031832
:1009B00080000318100003103820FFF7ABBF0000C1
:1009C000002307B5012108200193FFF781FD4FF4B3
:1009D0000073ADF804304823044801A98DF80730AE
:1009E000FFF7C3FC03B05DF804FB00BF000C01403F
:1009F000074B98811A899007FCD51A891106FCD4F7
:100A0000034B1A89D207FCD59889C0B2704700BF42
:100A10000030014003460244934200D1704703F87E
:100A2000011BF9E70FB40A4B13B51C6824B1A36985
:100A300013B9204600F05EFA05AB2046049AA1687F
:100A4000019300F029FC02B0BDE8104004B07047EB
:100A50003000002070B50E46054618B183690BB909
:100A600000F048FAAB69AC6813B9284600F042FAC6
:100A70002C4B9C4220D16C68636EDB0705D4A389A4
:100A8000980502D4A06D00F0D3FAA38919071DD5EB
:100A90002369DBB1013EA36816F8011F013BA36087
:100AA00039BB002B38DA22460A21284600F048F8E4
:100AB000013011D00A2511E01B4B9C4201D1AC68DA
:100AC000DAE71A4B9C4208BFEC68D5E72146284676
:100AD00000F088F80028DDD04FF0FF35636EDA07AC
:100AE00005D4A3899B0502D4A06D00F0A2FA284684
:100AF00070BD002B04DAA2699A4206DC0A2904D0F0
:100B000023685A1C22601970C5E72246284600F067
:100B100017F80130BFD1DFE70A2523685A1C22608D
:100B20001D70DBE7B41A0008D41A0008941A0008F4
:100B3000024B01461868FFF78DBF00BF3000002050
:100B4000F8B50E461446054618B183690BB900F096
:100B5000D1F9214B9C422BD16C68A369A360A38976
:100B60001A072FD523696BB323692068F6B2C01A20
:100B700063693746834204DC2146284600F026F9A3
:100B800030BBA3680130013BA36023685A1C22607C
:100B90001E706369834204D0A389DB0706D50A2E41
:100BA00004D12146284600F011F988B93846F8BD2D
:100BB0000A4B9C4201D1AC68CFE7094B9C4208BF6D
:100BC000EC68CAE72146284600F00CF80028CBD094
:100BD0004FF0FF37EAE700BFB41A0008D41A000844
:100BE000941A0008324B70B51D6806460C4625B1B4
:100BF000AB6913B9284600F07DF92E4B9C420FD10A
:100C00006C68A389B4F90C2019072CD4DD0611D423
:100C10000923336042F040034FF0FF30A3813EE0F0
:100C2000254B9C4201D1AC68EBE7244B9C4208BFAA
:100C3000EC68E6E7580712D5616B41B104F1440353
:100C4000994202D0304600F059FA00236363A38929
:100C500023F02403A3810023636023692360A38915
:100C600043F00803A38123694BB9A38903F42073DC
:100C7000B3F5007F03D02146304600F0FFF9A0898C
:100C8000B4F90C2010F001030AD00023A3606369BB
:100C90005B42A361236943B910F08000BAD170BDF3
:100CA000810758BF6369A360F4E70020F7E700BF3E
:100CB00030000020B41A0008D41A0008941A000862
:100CC0008A892DE9F041054610070C4658D44B6837
:100CD000002B05DC0B6C002B02DC0020BDE8F08152
:100CE000E66A002EF9D0002312F480522F682B60A0
:100CF00032D0606DA3895A0705D56368C01A636B4B
:100D00000BB1236CC01A00230246E66A2846216A0A
:100D1000B047431CA38906D129681D292CD82A4A2B
:100D2000CA40D60728D5002262602269D904226011
:100D300004D5421C01D12B6803B96065616B2F603B
:100D40000029CAD004F14403994202D0284600F099
:100D5000D5F900206063C1E7216A01232846B04726
:100D6000411CC7D12B68002BC4D01D2B01D0162BE2
:100D700001D12F60B1E7A38943F04003A381ADE720
:100D80000F69002FA9D0930718BF00230E6808BF72
:100D90004B69A6EB07080F608B60B8F1000F9CDD74
:100DA00043463A462846216AA66AB047002806DC30
:100DB000A3894FF0FF3043F04003A3818EE707443F
:100DC000A8EB0008E9E700BF0100402038B50B6937
:100DD00005460C4613B90025284638BD18B183696D
:100DE0000BB900F087F8144B9C421BD16C68B4F926
:100DF0000C30002BEFD0626ED00704D4990502D4DA
:100E0000A06D00F015F928462146FFF759FF636EE3
:100E10000546DA07E0D4A3899B05DDD4A06D00F078
:100E200008F9D9E7054B9C4201D1AC68DFE7044BD8
:100E30009C4208BFEC68DAE7B41A0008D41A00082C
:100E4000941A0008002310B50446C0E90033C0E935
:100E50000433836081814366C2818361194608221D
:100E60005C30FFF7D7FD054B24626362044BA3623D
:100E7000044BE362044B236310BD00BF4518000818
:100E8000671800089F180008C3180008014900F0FF
:100E9000AFB800BFCD0D000870B568254A1E554398
:100EA0000E4605F1740100F075F9044640B10021C9
:100EB000C0E900160C30A06005F16802FFF7AAFD3A
:100EC000204670BD014800F0B3B800BFB00000205C
:100ED000014800F0AEB800BFB0000020014800F0AB
:100EE000A7B800BFAB000020014800F0A2B800BFC7
:100EF000AB00002010B50446FFF7F0FFA3691BB15B
:100F0000BDE81040FFF7F0BFC4E912332365134B6F
:100F1000134A1B68A262A34208BF0123204608BFF0
:100F2000A36100F01FF86060204600F01BF8A0608D
:100F3000204600F017F800220421E0606068FFF707
:100F400081FF01220921A068FFF77CFF0222122104
:100F5000E068FFF777FF0123A361D1E7F41A0008E7
:100F60008D0E0008F8B50746FFF7ACFF1E4B1E6854
:100F7000B36913B93046FFF7BDFF4836D6E90134EF
:100F8000013B03D533680BB33668F7E7B4F90C506F
:100F9000D5B9164B04F15800E360656600F047F8D8
:100FA000FFF796FF08222946C4E90155C4E9045514
:100FB0002560A56104F15C00FFF72CFDC4E90D5527
:100FC000C4E912552046F8BD6834D9E704213846F3
:100FD000FFF762FF044630600028D5D1FFF778FFA5
:100FE0000C233B60EEE700BFF41A00080100FFFF8E
:100FF0002DE9F84306468846002700F14804D4E965
:101000000195B9F1010905D52468002CF7D13846BE
:10101000BDE8F883AB89012B07D9B5F90E30013350
:1010200003D029463046C04707436835E9E7704793
:101030007047704770B50E46B1F90E10144600297E
:101040001D4696B007DA00232B60B3891A0610D428
:101050004FF480630EE06A4600F05AFC0028F2DB91
:10106000019A02F47042A2F500535A425A412A6092
:10107000EEE740230020236016B070BD8B8973B566
:101080009D0706460C4607D504F1470323602361FC
:101090000123636102B070BD6A4601ABFFF7CAFF6E
:1010A00000990546304600F075F848B9B4F90C309F
:1010B0009A05EFD423F0030343F00203A381E3E78F
:1010C0000D4BB362A389206043F08003A381009B92
:1010D00020616361019B5BB13046B4F90E1000F0F2
:1010E00029FC28B1A38923F0030343F00103A38162
:1010F000A0890543A581CDE78D0E000838B50546CA
:10110000002943D051F8043C0C1F002BB8BFE41851
:1011100000F040FC1E4A1368104633B96360146047
:101120002846BDE8384000F03BBCA3420AD92168FC
:101130006218934201BF1A685B68521822606360AC
:101140000460EDE71A465B680BB1A342FAD9116857
:101150005018A0420BD120680144501883421160FE
:10116000DED118685B68014411605360D8E702D98A
:101170000C232B60D4E7206821188B4201BF19682B
:101180005B680918216063605460C9E738BD00BF1F
:101190009C000020F8B5CD1C25F0030508350C2D6A
:1011A00038BF0C25002D064601DBA94203D90C23CC
:1011B00033600020F8BD00F0EDFB21490A681446B9
:1011C0009CB9204F3B6823B92146304600F02AFBEA
:1011D00038602946304600F025FB431C23D10C2300
:1011E0003046336000F0DCFBE3E723685B1B17D479
:1011F0000B2B03D923601C44256004E06368A242E2
:101200000CBF0B605360304600F0CAFB04F10B00CA
:10121000231D20F00700C21ACCD01B1AA350C9E727
:1012200022466468CCE7C41C24F00304A042E3D047
:10123000211A304600F0F6FA0130DDD1CFE700BFC9
:101240009C000020A0000020936810B4013B002BFC
:10125000936007DA9469A34201DB0A2902D110BC2A
:10126000FFF76EBC1368581C10601970084610BC5C
:101270007047F8B506460F461446D518AC4201D162
:10128000002007E03A46304614F8011BFFF7DCFF68
:10129000431CF3D1F8BD00002DE9F04F0D46144674
:1012A000984606469DB018B183690BB9FFF722FE38
:1012B000894B9D421BD175686B6ED90705D4AB89EC
:1012C0009A0502D4A86DFFF7B3FEAB891B0701D5C1
:1012D0002B69EBB929463046FFF784FCC0B16B6E31
:1012E000DC070ED54FF0FF301DB0BDE8F08F7B4B13
:1012F0009D4201D1B568DFE7794B9D4208BFF56893
:10130000DAE7AB899805EDD4A86DFFF792FEE9E71F
:101310000023099320238DF8293030234FF0010951
:10132000CDF80C80DFF8BC818DF82A3023469A4630
:1013300013F8012B0AB1252AF9D1BAEB040B0BD013
:101340005B46224629463046FFF793FF013000F006
:10135000AA80099A5A4409929AF80030002B00F0AA
:10136000A28000234FF0FF32CDE905230AF1010AE4
:10137000049307938DF853301A935446052214F8BA
:10138000011B584800F0F8FA049AD8B9D10644BFB6
:1013900020238DF85330130744BF2B238DF853308F
:1013A0009AF800302A2B15D0544600204FF00A0C32
:1013B000079A214611F8013B303B092B4ED9B0B1B9
:1013C000079214E0A0EB080309FA03F31343A246C3
:1013D0000493D2E7039B191D1B680391002BBBBF2D
:1013E0005B4242F0020207930793B8BF049223784E
:1013F0002E2B0CD163782A2B35D1039B02341A1D76
:101400001B680392002BB8BF4FF0FF330593DFF842
:10141000E4A003225046217800F0AEFA40B1402308
:10142000A0EB0A0003FA00F0049B01340343049389
:1014300014F8011B06222C488DF8281000F09CFAA5
:1014400000283FD0294B1BBB039B073323F0070326
:1014500008330393099B3B44099367E70C4601203B
:101460000CFB0232A5E700234FF00A0C19460134A9
:101470000593204610F8012B303A092A03D9002B96
:10148000C5D00591C3E7044601230CFB0121F0E719
:1014900003AB00932A463046154B04A9AFF30080F6
:1014A0000746781CD6D16B6ED90705D4AB899A054F
:1014B00002D4A86DFFF7BDFDAB895B063FF512AF07
:1014C000099811E703AB00932A463046084B04A95C
:1014D00000F082F8E4E700BFB41A0008D41A00084C
:1014E000941A0008F81A0008021B00080000000007
:1014F00073120008FE1A00082DE9F04716469946B7
:101500008A680B6907469342B8BF1346336091F867
:1015100043200C46DDF820800AB101333360236894
:10152000990642BF336802333360256815F006051B
:1015300006D104F1190AE36832689B1AAB4228DC31
:1015400094F84320131E226818BF012392062DD45D
:101550004946384604F14302C047013020D0236891
:10156000E56803F00603042B18BF002532684FF02E
:101570000006A36808BFAD1A226908BF25EAE57511
:101580009342C4BF9B1AED181A34B5421AD10020F9
:1015900008E00123524649463846C047013003D18E
:1015A0004FF0FF30BDE8F0870135C4E73020E11887
:1015B00081F843005A1C94F845102244023382F803
:1015C0004310C5E70123224649463846C04701304B
:1015D000E6D00136D9E700002DE9FF470C46277E0B
:1015E0009146782F80469A460C9904F1430207D819
:1015F000622F0AD8002F00F0D980582F00F0A48065
:1016000004F1420684F842703AE0A7F16303152B17
:10161000F6D801A050F823F07116000885160008CE
:10162000011600080116000801160008011600083E
:1016300085160008011600080116000801160008AA
:101640000116000893170008B51600087517000862
:101650000116000801160008B51700080116000859
:10166000B516000801160008011600087D170008CD
:101670000B6804F142061A1D1B680A6084F84230A8
:101680000123A4E0256808682E0600F104030AD5AA
:1016900005680B60002D03DA2D236D4284F843307A
:1016A0000A235E4819E015F0400F05680B6018BF6B
:1016B0002DB2EFE70B682568181D0860280601D5D4
:1016C0001D6802E06906FBD51D886F2F0CBF08233B
:1016D0000A235248002184F843106668002EA8BFF0
:1016E0002168A660A4BF21F0040121600DB9002E7D
:1016F0004DD01646B5FBF3F103FB1157C75D06F855
:10170000017D2F46BB420D46F4D9082B0BD123682F
:10171000DF0708D5236961689942DEBF302306F8E8
:10172000013C06F1FF36921B22614B4621464046A2
:10173000CDF800A003AAFFF7DFFE01304CD14FF037
:10174000FF3004B0BDE8F087344884F845700E6877
:10175000236856F8045B1F060E6014D5D90744BFF2
:1017600043F0200323601DB9236823F02003236086
:101770001023AFE7236843F0200323607823284831
:1017800084F84530E3E75E0648BFADB2E6E71646AB
:10179000BBE70B6826681D1D60690D6035061B6878
:1017A00001D5186002E07106FBD5188000231646AB
:1017B0002361BAE70B681A1D0A601E6800213046D3
:1017C000626800F0D9F808B1801B6060636823612B
:1017D000002384F84330A8E732464946404623694F
:1017E000D0470130ABD023689B0713D4E068039B3C
:1017F0009842B8BF1846A4E70123324649464046FE
:10180000D04701309BD00135E36803995B1AAB42A6
:10181000F2DCEBE7002504F11906F5E7091B0008E7
:101820001A1B000838B50023054D044608462B60F6
:1018300000F0F6F8431C02D12B6803B1236038BDD9
:10184000B400002010B50C46B1F90E1000F0AEF84F
:101850000028ABBF636DA3891B1823F48053ACBF72
:101860006365A38110BD2DE9F0411F468B890546B4
:10187000DB050C46164605D502230022B1F90E10F1
:1018800000F068F8A389324623F48053A3812846E8
:101890003B46B4F90E10BDE8F04100F017B810B5A2
:1018A0000C46B1F90E1000F055F8431CA38915BF82
:1018B000606523F4805343F48053A38118BFA38150
:1018C00010BDB1F90E1000F013B8000038B5044691
:1018D000084611460022054D2A601A46FEF7F4FF1D
:1018E000431C02D12B6803B1236038BDB400002033
:1018F00038B50023054D044608462B6000F068F813
:10190000431C02D12B6803B1236038BDB400002012
:1019100038B50023064D0446084611462B6000F0FA
:101920005FF8431C02D12B6803B1236038BD00BFB0
:10193000B400002038B50023054D044608462B604E
:1019400000F056F8431C02D12B6803B1236038BD68
:10195000B400002038B50446084611460022054D63
:101960002A601A4600F04CF8431C02D12B6803B1E0
:10197000236038BDB4000020034610B5C9B202444C
:101980009342184601D1002003E0047801338C42D1
:10199000F6D110BD0148FFF74BBB00BFAC000020E3
:1019A0000148FFF746BB00BFAC00002038B5044635
:1019B000084611460022054D2A601A4600F028F814
:1019C000431C02D12B6803B1236038BDB400002052
:1019D0005822024B4FF0FF301A607047B4000020CD
:1019E0005822024B4FF0FF301A607047B4000020BD
:1019F0005822024B00201A60704700BFB40000203C
:101A00005822024B4FF0FF301A607047B40000209C
:101A10005822024B4FF0FF301A607047B40000208C
:101A2000044A05491368002B08BF0B461844106090
:101A300018467047A4000020B80000205379737442
:101A4000656D436C6B3A25640D0A00546869732018
:101A5000697320746865206C6F77207465737420D7
:101A600070726F6772616D20666F722043483934FF
:101A700033342E0D00536C6565702073746174658A
:101A80000D004177616B656E696E672073746174D8
:101A9000650D0000000000000000000000000000D4
:101AA0000000000000000000000000000000000036
:101AB0000000000000000000000000000000000026
:101AC0000000000000000000000000000000000016
:101AD0000000000000000000000000000000000006
:101AE00000000000000000000000000000000000F6
:101AF0000000000034000020232D302B2000686CF3
:101B00004C00656667454647003031323334353620
:101B10003738394142434445460030313233343559
:0C1B200036373839616263646566000086
:101B2C000000000000000000010203040607080981
:101B3C0000A24A040204060800000000010203048B
:101B4C0001020304060708090048E80100D8B8059B
:101B5C003400002000000000B41A0008D41A000859
:101B6C00941A0008000000000000000000000000B3
:101B7C000000000000000000000000000000000059
:101B8C000000000000000000000000000000000049
:101B9C000000000000000000000000000000000039
:101BAC000000000000000000000000000000000029
:041BBC000000000025
:0400000508000325C7
:00000001FF
