:020000040800F2
:1000000000500020850400081D0300081F0300089D
:100010002103000823030008250300080000000056
:10002000000000000000000000000000270300089E
:1000300029030008000000002B0300082D0300081E
:10004000C9040008C9040008C9040008C90400085C
:10005000C9040008C9040008C9040008C90400084C
:10006000C9040008C9040008C9040008C90400083C
:10007000C9040008C9040008C9040008C90400082C
:10008000C9040008C9040008C9040008C90400081C
:10009000C9040008C9040008C9040008C90400080C
:1000A000C9040008C9040008C9040008C9040008FC
:1000B000C9040008C9040008C9040008C9040008EC
:1000C000C9040008C9040008C9040008C9040008DC
:1000D000C9040008C9040008C9040008C9040008CC
:1000E000C9040008C9040008C9040008C9040008BC
:1000F00030B5847A022C22D80C221349457B02FBAE
:100100000412137AE5B143F0010313720C23634325
:100110000488CA1854804488CC528488D480C48807
:10012000948003F10802C37A007B5B0003F01E0396
:1001300043EA4013885C00F0010003438B5430BD58
:1001400065F30003E1E700BF940000202DE9F041D2
:1001500088B007460D46164600210E2204A81C460C
:1001600000F040FE4FF480734FF0000803939DF8B9
:10017000383001A88DF80630ADF80A808DF8077088
:100180008DF808608DF80950ADF8044000F0EAFBE6
:1001900046F2E022094B04A8CDE9042340F2011302
:1001A000CDF81880ADF81C30FFF7A2FF0121022026
:1001B00000F0E2FC08B0BDE8F08100BFE0FF040001
:1001C00040F2173370B586B0019300238DF80E10FE
:1001D000ADF80C300DF10F0289B29CB2A14215D8D6
:1001E00001A800F03DFC014606460E4800F002FE64
:1001F0000025304600F096FC0128ACB20BD001354A
:10020000B5F5805FF5D1012006B070BDC45C013347
:1002100002F8014BE1E740F6FF70231A58425841BB
:10022000F2E700BF0C1E00082DE9F04385B000F096
:10023000F7F800F0B3FC4FF4E13000F005FD2B4B74
:100240002B48196800F0D6FD2A4800F059FE2A48CC
:1002500000F056FE4FF4FA7000F0DAFC00F094FD66
:1002600000F096FD254800F065FA052000F0F4FA4C
:1002700001221146104600F0C5FA012000F011FBE2
:10028000062000F0E9FA0020102305220421009046
:10029000FFF75CFF1A4800F033FE1A4E1A4FDFF8E2
:1002A000748008210DEB0100CDE90267FFF788FF9C
:1002B00038B1164800F024FE4FF4FA7000F0A8FCA4
:1002C000EFE7404600F01CFE114800F019FE08243C
:1002D000DFF8449002AD484615F8011B013C00F0E0
:1002E00089FD14F0FF04F6D1E6E700BF10000020FE
:1002F0001A1E0008291E0008561E00080024F400DB
:100300005F1E00080001020304050607851E0008A1
:10031000A01E0008921E0008131E0008FEE7FEE75C
:10032000FEE7FEE7FEE77047704770477047000042
:10033000374B82B01A6842F001021A605968354A98
:100340000A405A601A6822F0847222F480321A60DD
:100350001A6822F480221A605A6822F4FE025A6057
:100360004FF41F029A600022009201921A6842F430
:1003700080321A601A6802F400320192009A013247
:100380000092019A1AB9009AB2F5A06FF2D11A68D8
:1003900012F4003218BF01220192019A012A30D1D1
:1003A0001D4A116841F010011160116821F003012C
:1003B0001160116841F0020111605A685A605A6870
:1003C0005A605A6842F480625A605A6822F47C1279
:1003D0005A605A6842F4E8125A601A6842F0807211
:1003E0001A601A689201FCD55A6822F003025A601A
:1003F0005A6842F002025A605A6802F00C02082A57
:10040000FAD14FF00062054B9A6002B0704700BF0E
:10041000001002400000FFF80020024000ED00E064
:100420001249134A4B6803F00C03082B0AD0114BF6
:1004300013604B681049C3F30313C95C1368CB40C6
:10044000136070474B684868C3F38343C00303F1EC
:10045000020305D409480068C00604D5054803E036
:1004600048688003FAD506484343E1E7001002409C
:100470001000002000127A00000000200038024026
:1004800000093D00002103E00A4B5B584350043152
:1004900009480A4B42189A42F6D3094A02E000235F
:1004A00042F8043B074B9A42F9D3FFF741FFFFF7AD
:1004B000BBFE7047441F000800000020940000208D
:1004C00094000020CC000020FEE72DE9F041CB781D
:1004D0000E88DA0648BF8A7803F00F0548BF154337
:1004E0000A78D2B100214FF0010C4FF00F0E0268D4
:1004F0000CFA01F737EA06040BD18C000EFA04F867
:1005000022EA080205FA04F4282B42EA040224D164
:10051000476101310829EBD10260FF2E1BD9082465
:100520004FF0010C4FF00F0E41680CFA04F737EA58
:1005300006020CD1A200203A0EFA02F821EA0801C4
:1005400005FA02F2282B41EA02010AD1476101347F
:10055000102CEAD14160BDE8F081482B08BF07614B
:10056000D7E7482B08BF0761F1E701617047416198
:1005700070470000044B04281A680CBF42F00402C4
:1005800022F004021A60704710E000E01D4A10B526
:10059000536803F00C03082B1FD01B4B03605368F8
:1005A0001A4CC3F30313E15C0368CB40436051680A
:1005B000C1F30221615C23FA01F181605168C1F34A
:1005C000C221615CCB40C36052681149C2F38132E1
:1005D0008A5CB3FBF2F3036110BD53685168C3F347
:1005E0008343C90303F1020305D40A490968CC0611
:1005F00004D5054903E051688903FAD506494B4300
:10060000CCE700BF0010024000127A001800002062
:10061000140000200038024000093D00044B9A6994
:1006200011B110439861704722EA0000FAE700BF59
:1006300000100240038810B503F441524C880B8827
:1006400023438C882343CC8823430C8923434C8940
:1006500023438C892343CC89234313439BB20380D8
:100660000B8A038210BD038821B19BB243F0400383
:100670000380704723F040031B041B0CF8E70000C5
:1006800030B50D460446038A8A899BB2C98823F493
:1006900040530B4303828389A98823F4B05323F08A
:1006A0000C031B041B0C0B43298987B00B4369897E
:1006B0000B439BB28381838A9BB223F44073134321
:1006C000838201A8FFF762FFDDE903230D498C4215
:1006D00008BF1A46192353432A689200B3FBF2F36A
:1006E0006422B3FBF2F102FB11331B013233B3FB83
:1006F000F2F303F00F0343EA01139BB2238107B027
:1007000030BD00BF00380140838921B19BB243F462
:1007100000538381704723F400531B041B0CF8E73C
:10072000C1F30801818070470388194214BF01207A
:1007300000207047014B1860704700BF2800002060
:1007400038B505460C46002000F0C2FA45F080009E
:1007500000F036FB00F0B8FA00F0B6FA204600F0E0
:100760002FFB012000F0B4FA00F0AEFA00F0ACFA72
:10077000BDE8384000F0A8BA70B5064600200C4627
:10078000154600F0A5FA46F0800000F019FB00F0D5
:100790009BFA00F099FA2544AC420AD1012000F0FE
:1007A00097FA00F091FA00F08FFA00F08DFA00202D
:1007B00070BD14F8010B00F003FBEDE770B50646C1
:1007C00000200C46154600F083FA304600F0F8FA97
:1007D00000F07AFA00F078FA00F076FA2544AC429C
:1007E0000AD1012000F074FA00F06EFA00F06CFA01
:1007F00000F06AFA002070BDFF2000F0E1FA04F872
:10080000010BECE7002918BF802110B508B141F0B9
:10081000400102F01F020A4353B2D1B202F0C002FB
:10082000802A02D005D8002B05DB094B094A1A6043
:1008300001E0C02AF9D04820FFF782FF4CF2503483
:10084000013CA4B200F040FA002CF9D110BD00BF69
:100850002C00002000D8B805032337B504228DF8FA
:1008600004304AF201538DF805000DEB02014520DA
:10087000ADF806300B24FFF77FFF013C0FD04FF49B
:100880007A7500F021FA013DFBD1042245200DEBE1
:100890000201FFF793FF9DF807305A2BEDD103B00B
:1008A00030BD012337B504228DF804304AF20153DC
:1008B0008DF805000DEB02014520ADF806300B2444
:1008C000FFF75AFF013C0FD04FF47A7500F0FCF9A6
:1008D000013DFBD1042245200DEB0201FFF76EFF25
:1008E0009DF807305A2BEDD103B030BD07B50B0A88
:1008F0008DF801108DF802300B0C090E8DF80000F8
:100900008DF804100522694646208DF80330FFF764
:1009100033FF03B05DF804FB37B50446002000F058
:10092000D7F9462000F04CFA00F0CEF900F0CCF9EF
:10093000204600F045FA042400F0C6F900F0C4F99E
:1009400001ADFF2000F03CFA013C14F0FF0405F873
:10095000010BF6D1012000F0BBF900F0B5F90198C8
:1009600003B030BD38B504460020FFF7D5FF20F0B6
:1009700002010020FFF7BAFF0020FFF7CDFF40F093
:1009800001010020FFF7B2FF0B250120FFF7C4FF94
:10099000C20701D4013DF8D10120FFF7BDFF10F0DF
:1009A00001004AD00020FFF7B7FFA379002B45D004
:1009B00040F08001E379002B43D041F04001237ADD
:1009C000002B41D041F02001637A002B3FD041F051
:1009D0001001A37A002B3DD041F00801E37A002BEF
:1009E0003BD041F004010020FFF780FFE378A178BD
:1009F0001B0643EA81732179072043EA01436179A9
:100A000043EA015321880B2401391943FFF76EFF94
:100A10000020FFF781FF20F001010020FFF766FFB3
:100A20000120FFF779FFC30701D5013CF8D1012070
:100A3000FFF772FFC04300F0010038BD20F08001D5
:100A4000B8E721F04001BAE721F02001BCE721F02E
:100A50001001BEE721F00801C0E721F00401C2E760
:100A60002DE9F04104460220FFF756FF410149D429
:100A70000220FFF751FF020146D40220FFF74CFF8E
:100A8000C3004CD50226B70007F10B052846FFF737
:100A900043FF00F001012846FFF728FF237A28468C
:100AA000A3BBFFF739FF2168637A43EA4151014351
:100AB0002846FFF71BFFA37A07F10C0803F00F038A
:100AC000A3724046FFF728FFA17A20F00F000143F0
:100AD0004046FFF70BFFD4F80B1007F10D00FFF7AE
:100AE00005FFD4F80F1007F10E00FFF7FFFE2846B0
:100AF000FFF712FF40F001012846FFF7F7FE3046EE
:100B0000BDE8F0810026BEE70126BCE7FFF704FF41
:100B10006168237A43EAC103617A1943C7E704266F
:100B2000EDE7000010B504460220FFF7F5FE012CAA
:100B30000BD0022C10D0BCB90C4A0240A2B10B4819
:100B4000824214BF0020012010BD094B00EA0302BD
:100B50008343F3D12046F7E7064B054900EA030239
:100B60008A42EBD99A42ECE70220EDE70300000449
:100B7000000300080000031038B50D4604460520A8
:100B8000FFF7CAFE35B140EA04010520BDE8384050
:100B9000FFF7ACBE20EA0401F7E7000008B56FF0EC
:100BA0000400FFF7E7FC084B084A1B68B3FBF2F3AD
:100BB000074ADBB21370C3EB431203EB8203054A0F
:100BC000DB00138008BD00BF1000002000127A0077
:100BD000AE000020AC00002000220B4B1B785843D5
:100BE0000A4B58609A601A6842F001021A601A684B
:100BF00002F00112012AFAD01A6822F001021A60EA
:100C000000229A60704700BFAE00002010E000E0B4
:100C100000220B4B1B8858430A4B58609A601A6895
:100C200042F001021A601A6802F00112012AFAD099
:100C30001A6822F001021A6000229A60704700BF11
:100C4000AC00002010E000E010B5012186B00446A1
:100C500044F20400FFF7E2FC0C4B01A90C4801939D
:100C6000FFF733FC00234FF400220294094C02A941
:100C70002046CDE90332ADF81430FFF701FD012124
:100C80002046FFF741FD06B010BD00BF000203186B
:100C90000008014000380140F8B50E461446002512
:100CA000084FA54201DB2046F8BD40210548FFF76B
:100CB0003BFD0028F9D07157384689B2FFF730FD67
:100CC0000135EEE7003801400120FFF785BF000045
:100CD000102110B10248FFF748BC0148FFF747BC9C
:100CE0000008014070B5002586B01222064629464C
:100CF00001A8214C009500F075F8012141F2040093
:100D0000FFF78CFC1D4B694620460093FFF7DDFB87
:100D10004023ADF800300423694620468DF80330A7
:100D2000FFF7D3FB164B694620460093FFF7CDFB38
:100D3000144B204610210093FFF717FC694620460C
:100D4000FFF7C3FB4FF08273CDE901354FF000731D
:100D50000393072304F52054204601A9ADF814306D
:100D6000ADF81060ADF81250FFF764FC0121204689
:100D7000FFF779FC06B070BD0008014020000318A1
:100D800080000318100003103820FFF7ABBF0000ED
:100D9000002307B5012108200193FFF73FFC4FF422
:100DA0000073ADF804304823044801A98DF80730DA
:100DB000FFF78BFB03B05DF804FB00BF000C0140A4
:100DC000074B98811A899007FCD51A891106FCD423
:100DD000034B1A89D207FCD59889C0B2704700BF6F
:100DE0000030014003460244934200D1704703F8AB
:100DF000011BF9E70FB40A4B13B51C6824B1A369B2
:100E000013B9204600F05EFA05AB2046049AA168AB
:100E1000019300F029FC02B0BDE8104004B0704717
:100E20003000002070B50E46054618B183690BB935
:100E300000F048FAAB69AC6813B9284600F042FAF2
:100E40002C4B9C4220D16C68636EDB0705D4A389D0
:100E5000980502D4A06D00F0D3FAA38919071DD517
:100E60002369DBB1013EA36816F8011F013BA360B3
:100E700039BB002B38DA22460A21284600F048F810
:100E8000013011D00A2511E01B4B9C4201D1AC6806
:100E9000DAE71A4B9C4208BFEC68D5E721462846A2
:100EA00000F088F80028DDD04FF0FF35636EDA07D8
:100EB00005D4A3899B0502D4A06D00F0A2FA2846B0
:100EC00070BD002B04DAA2699A4206DC0A2904D01C
:100ED00023685A1C22601970C5E72246284600F094
:100EE00017F80130BFD1DFE70A2523685A1C2260BA
:100EF0001D70DBE7CC1E0008EC1E0008AC1E0008CD
:100F0000024B01461868FFF78DBF00BF300000207C
:100F1000F8B50E461446054618B183690BB900F0C2
:100F2000D1F9214B9C422BD16C68A369A360A389A2
:100F30001A072FD523696BB323692068F6B2C01A4C
:100F400063693746834204DC2146284600F026F9CF
:100F500030BBA3680130013BA36023685A1C2260A8
:100F60001E706369834204D0A389DB0706D50A2E6D
:100F700004D12146284600F011F988B93846F8BD59
:100F80000A4B9C4201D1AC68CFE7094B9C4208BF99
:100F9000EC68CAE72146284600F00CF80028CBD0C0
:100FA0004FF0FF37EAE700BFCC1E0008EC1E000838
:100FB000AC1E0008324B70B51D6806460C4625B1C4
:100FC000AB6913B9284600F07DF92E4B9C420FD136
:100FD0006C68A389B4F90C2019072CD4DD0611D450
:100FE0000923336042F040034FF0FF30A3813EE01D
:100FF000254B9C4201D1AC68EBE7244B9C4208BFD7
:10100000EC68E6E7580712D5616B41B104F144037F
:10101000994202D0304600F059FA00236363A38955
:1010200023F02403A3810023636023692360A38941
:1010300043F00803A38123694BB9A38903F4207308
:10104000B3F5007F03D02146304600F0FFF9A089B8
:10105000B4F90C2010F001030AD00023A3606369E7
:101060005B42A361236943B910F08000BAD170BD1F
:10107000810758BF6369A360F4E70020F7E700BF6A
:1010800030000020CC1E0008EC1E0008AC1E00083A
:101090008A892DE9F041054610070C4658D44B6863
:1010A000002B05DC0B6C002B02DC0020BDE8F0817E
:1010B000E66A002EF9D0002312F480522F682B60CC
:1010C00032D0606DA3895A0705D56368C01A636B77
:1010D0000BB1236CC01A00230246E66A2846216A37
:1010E000B047431CA38906D129681D292CD82A4A58
:1010F000CA40D60728D5002262602269D90422603E
:1011000004D5421C01D12B6803B96065616B2F6067
:101110000029CAD004F14403994202D0284600F0C5
:10112000D5F900206063C1E7216A01232846B04752
:10113000411CC7D12B68002BC4D01D2B01D0162B0E
:1011400001D12F60B1E7A38943F04003A381ADE74C
:101150000F69002FA9D0930718BF00230E6808BF9E
:101160004B69A6EB07080F608B60B8F1000F9CDDA0
:1011700043463A462846216AA66AB047002806DC5C
:10118000A3894FF0FF3043F04003A3818EE707446B
:10119000A8EB0008E9E700BF0100402038B50B6963
:1011A00005460C4613B90025284638BD18B1836999
:1011B0000BB900F087F8144B9C421BD16C68B4F952
:1011C0000C30002BEFD0626ED00704D4990502D406
:1011D000A06D00F015F928462146FFF759FF636E10
:1011E0000546DA07E0D4A3899B05DDD4A06D00F0A5
:1011F00008F9D9E7054B9C4201D1AC68DFE7044B05
:101200009C4208BFEC68DAE7CC1E0008EC1E000820
:10121000AC1E0008002310B50446C0E90033C0E945
:101220000433836081814366C28183611946082249
:101230005C30FFF7D7FD054B24626362044BA36269
:10124000044BE362044B236310BD00BF151C000870
:10125000371C00086F1C0008931C0008014900F0AF
:10126000AFB800BF9D11000870B568254A1E5543F0
:101270000E4605F1740100F075F9044640B10021F5
:10128000C0E900160C30A06005F16802FFF7AAFD66
:10129000204670BD014800F0B3B800BFC400002074
:1012A000014800F0AEB800BFC4000020014800F0C3
:1012B000A7B800BFBF000020014800F0A2B800BFDF
:1012C000BF00002010B50446FFF7F0FFA3691BB173
:1012D000BDE81040FFF7F0BFC4E912332365134B9C
:1012E000134A1B68A262A34208BF0123204608BF1D
:1012F000A36100F01FF86060204600F01BF8A060BA
:10130000204600F017F800220421E0606068FFF733
:1013100081FF01220921A068FFF77CFF0222122130
:10132000E068FFF777FF0123A361D1E70C1F0008F6
:101330005D120008F8B50746FFF7ACFF1E4B1E68AC
:10134000B36913B93046FFF7BDFF4836D6E901341B
:10135000013B03D533680BB33668F7E7B4F90C509B
:10136000D5B9164B04F15800E360656600F047F804
:10137000FFF796FF08222946C4E90155C4E9045540
:101380002560A56104F15C00FFF72CFDC4E90D5553
:10139000C4E912552046F8BD6834D9E7042138461F
:1013A000FFF762FF044630600028D5D1FFF778FFD1
:1013B0000C233B60EEE700BF0C1F00080100FFFF9D
:1013C0002DE9F84306468846002700F14804D4E991
:1013D0000195B9F1010905D52468002CF7D13846EB
:1013E000BDE8F883AB89012B07D9B5F90E3001337D
:1013F00003D029463046C04707436835E9E77047C0
:101400007047704770B50E46B1F90E1014460029AA
:101410001D4696B007DA00232B60B3891A0610D454
:101420004FF480630EE06A4600F05AFC0028F2DBBD
:10143000019A02F47042A2F500535A425A412A60BE
:10144000EEE740230020236016B070BD8B8973B592
:101450009D0706460C4607D504F147032360236128
:101460000123636102B070BD6A4601ABFFF7CAFF9A
:1014700000990546304600F075F848B9B4F90C30CB
:101480009A05EFD423F0030343F00203A381E3E7BB
:101490000D4BB362A389206043F08003A381009BBE
:1014A00020616361019B5BB13046B4F90E1000F01E
:1014B00029FC28B1A38923F0030343F00103A3818E
:1014C000A0890543A581CDE75D12000838B5054622
:1014D000002943D051F8043C0C1F002BB8BFE4187E
:1014E00000F040FC1E4A1368104633B96360146074
:1014F0002846BDE8384000F03BBCA3420AD9216829
:101500006218934201BF1A685B68521822606360D8
:101510000460EDE71A465B680BB1A342FAD9116883
:101520005018A0420BD1206801445018834211602A
:10153000DED118685B68014411605360D8E702D9B6
:101540000C232B60D4E7206821188B4201BF196857
:101550005B680918216063605460C9E738BD00BF4B
:10156000B0000020F8B5CD1C25F0030508350C2D82
:1015700038BF0C25002D064601DBA94203D90C23F8
:1015800033600020F8BD00F0EDFB21490A681446E5
:101590009CB9204F3B6823B92146304600F02AFB16
:1015A00038602946304600F025FB431C23D10C232C
:1015B0003046336000F0DCFBE3E723685B1B17D4A5
:1015C0000B2B03D923601C44256004E06368A2420E
:1015D0000CBF0B605360304600F0CAFB04F10B00F7
:1015E000231D20F00700C21ACCD01B1AA350C9E754
:1015F00022466468CCE7C41C24F00304A042E3D074
:10160000211A304600F0F6FA0130DDD1CFE700BFF5
:10161000B0000020B4000020936810B4013B002B00
:10162000936007DA9469A34201DB0A2902D110BC56
:10163000FFF76EBC1368581C10601970084610BC88
:101640007047F8B506460F461446D518AC4201D18E
:10165000002007E03A46304614F8011BFFF7DCFF94
:10166000431CF3D1F8BD00002DE9F04F0D461446A0
:10167000984606469DB018B183690BB9FFF722FE64
:10168000894B9D421BD175686B6ED90705D4AB8918
:101690009A0502D4A86DFFF7B3FEAB891B0701D5ED
:1016A0002B69EBB929463046FFF784FCC0B16B6E5D
:1016B000DC070ED54FF0FF301DB0BDE8F08F7B4B3F
:1016C0009D4201D1B568DFE7794B9D4208BFF568BF
:1016D000DAE7AB899805EDD4A86DFFF792FEE9E74C
:1016E0000023099320238DF8293030234FF001097E
:1016F000CDF80C80DFF8BC818DF82A3023469A465D
:1017000013F8012B0AB1252AF9D1BAEB040B0BD03F
:101710005B46224629463046FFF793FF013000F032
:10172000AA80099A5A4409929AF80030002B00F0D6
:10173000A28000234FF0FF32CDE905230AF1010A10
:10174000049307938DF853301A935446052214F8E6
:10175000011B584800F0F8FA049AD8B9D10644BFE2
:1017600020238DF85330130744BF2B238DF85330BB
:101770009AF800302A2B15D0544600204FF00A0C5E
:10178000079A214611F8013B303B092B4ED9B0B1E5
:10179000079214E0A0EB080309FA03F31343A246EF
:1017A0000493D2E7039B191D1B680391002BBBBF59
:1017B0005B4242F0020207930793B8BF049223787A
:1017C0002E2B0CD163782A2B35D1039B02341A1DA2
:1017D0001B680392002BB8BF4FF0FF330593DFF86F
:1017E000E4A003225046217800F0AEFA40B1402335
:1017F000A0EB0A0003FA00F0049B013403430493B6
:1018000014F8011B06222C488DF8281000F09CFAD1
:1018100000283FD0294B1BBB039B073323F0070352
:1018200008330393099B3B44099367E70C46012067
:101830000CFB0232A5E700234FF00A0C19460134D5
:101840000593204610F8012B303A092A03D9002BC2
:10185000C5D00591C3E7044601230CFB0121F0E745
:1018600003AB00932A463046154B04A9AFF3008022
:101870000746781CD6D16B6ED90705D4AB899A057B
:1018800002D4A86DFFF7BDFDAB895B063FF512AF33
:10189000099811E703AB00932A463046084B04A988
:1018A00000F082F8E4E700BFCC1E0008EC1E000840
:1018B000AC1E0008101F00081A1F000800000000DE
:1018C00043160008161F00082DE9F04716469946F2
:1018D0008A680B6907469342B8BF1346336091F894
:1018E00043200C46DDF820800AB1013333602368C1
:1018F000990642BF336802333360256815F0060548
:1019000006D104F1190AE36832689B1AAB4228DC5D
:1019100094F84320131E226818BF012392062DD489
:101920004946384604F14302C047013020D02368BD
:10193000E56803F00603042B18BF002532684FF05A
:101940000006A36808BFAD1A226908BF25EAE5753D
:101950009342C4BF9B1AED181A34B5421AD1002025
:1019600008E00123524649463846C047013003D1BA
:101970004FF0FF30BDE8F0870135C4E73020E118B3
:1019800081F843005A1C94F845102244023382F82F
:101990004310C5E70123224649463846C047013077
:1019A000E6D00136D9E700002DE9FF470C46277E37
:1019B0009146782F80469A460C9904F1430207D845
:1019C000622F0AD8002F00F0D980582F00F0A48091
:1019D00004F1420684F842703AE0A7F16303152B44
:1019E000F6D801A050F823F0411A0008551A000853
:1019F000D1190008D1190008D1190008D11900081F
:101A0000551A0008D1190008D1190008D119000889
:101A1000D1190008631B0008851A0008451B00083F
:101A2000D1190008D1190008851B0008D119000838
:101A3000851A0008D1190008D11900084D1B0008AB
:101A40000B6804F142061A1D1B680A6084F84230D4
:101A50000123A4E0256808682E0600F104030AD5D6
:101A600005680B60002D03DA2D236D4284F84330A6
:101A70000A235E4819E015F0400F05680B6018BF97
:101A80002DB2EFE70B682568181D0860280601D500
:101A90001D6802E06906FBD51D886F2F0CBF082367
:101AA0000A235248002184F843106668002EA8BF1C
:101AB0002168A660A4BF21F0040121600DB9002EA9
:101AC0004DD01646B5FBF3F103FB1157C75D06F881
:101AD000017D2F46BB420D46F4D9082B0BD123685C
:101AE000DF0708D5236961689942DEBF302306F815
:101AF000013C06F1FF36921B22614B4621464046CF
:101B0000CDF800A003AAFFF7DFFE01304CD14FF063
:101B1000FF3004B0BDE8F087344884F845700E68A3
:101B2000236856F8045B1F060E6014D5D90744BF1E
:101B300043F0200323601DB9236823F020032360B2
:101B40001023AFE7236843F020032360782328485D
:101B500084F84530E3E75E0648BFADB2E6E71646D7
:101B6000BBE70B6826681D1D60690D6035061B68A4
:101B700001D5186002E07106FBD5188000231646D7
:101B80002361BAE70B681A1D0A601E6800213046FF
:101B9000626800F0D9F808B1801B60606368236157
:101BA000002384F84330A8E732464946404623697B
:101BB000D0470130ABD023689B0713D4E068039B68
:101BC0009842B8BF1846A4E701233246494640462A
:101BD000D04701309BD00135E36803995B1AAB42D3
:101BE000F2DCEBE7002504F11906F5E7211F0008F8
:101BF000321F000838B50023054D044608462B6007
:101C000000F0F6F8431C02D12B6803B1236038BD05
:101C1000C800002010B50C46B1F90E1000F0AEF867
:101C20000028ABBF636DA3891B1823F48053ACBF9E
:101C30006365A38110BD2DE9F0411F468B890546E0
:101C4000DB050C46164605D502230022B1F90E101D
:101C500000F068F8A389324623F48053A381284614
:101C60003B46B4F90E10BDE8F04100F017B810B5CE
:101C70000C46B1F90E1000F055F8431CA38915BFAE
:101C8000606523F4805343F48053A38118BFA3817C
:101C900010BDB1F90E1000F013B8000038B50446BD
:101CA000084611460022054D2A601A46FEF7F4FF49
:101CB000431C02D12B6803B1236038BDC80000204B
:101CC00038B50023054D044608462B6000F068F83F
:101CD000431C02D12B6803B1236038BDC80000202B
:101CE00038B50023064D0446084611462B6000F027
:101CF0005FF8431C02D12B6803B1236038BD00BFDD
:101D0000C800002038B50023054D044608462B6066
:101D100000F056F8431C02D12B6803B1236038BD94
:101D2000C800002038B50446084611460022054D7B
:101D30002A601A4600F04CF8431C02D12B6803B10C
:101D4000236038BDC8000020034610B5C9B2024464
:101D50009342184601D1002003E0047801338C42FD
:101D6000F6D110BD0148FFF74BBB00BFC0000020FB
:101D70000148FFF746BB00BFC000002038B504464D
:101D8000084611460022054D2A601A4600F028F840
:101D9000431C02D12B6803B1236038BDC80000206A
:101DA0005822024B4FF0FF301A607047C8000020E5
:101DB0005822024B4FF0FF301A607047C8000020D5
:101DC0005822024B00201A60704700BFC800002054
:101DD0005822024B4FF0FF301A607047C8000020B5
:101DE0005822024B4FF0FF301A607047C8000020A5
:101DF000044A05491368002B08BF0B4618441060BD
:101E000018467047B8000020CC0000206D626F7843
:101E1000203D20253032780D0A0053797374656DAA
:101E2000436C6B3A25640D0A00546869732069732A
:101E3000207468652043414E2073616D706C65208D
:101E400070726F6A65637420666F7220434839341C
:101E50003334442E0D005478204D6F64650D0043DB
:101E60004839343334442077696C6C2066616C6C7B
:101E70002061736C65657020696D6D65646961745E
:101E8000656C790D0053656E64204661696C65640C
:101E90000D0053656E6420537563636573730D00A5
:101EA00053656E6420446174613A0D0000000000C7
:101EB0000000000000000000000000000000000022
:101EC0000000000000000000000000000000000012
:101ED0000000000000000000000000000000000002
:101EE00000000000000000000000000000000000F2
:101EF00000000000000000000000000000000000E2
:101F0000000000000000000000000000340000207D
:101F1000232D302B2000686C4C00656667454647D2
:101F20000030313233343536373839414243444555
:101F300046003031323334353637383961626364C4
:041F400065660000D2
:101F44000000000000000000010203040607080965
:101F540000A24A040204060800000000010203046F
:101F640001020304060708090048E80100D8B8057F
:101F74003400002000000000CC1E0008EC1E000805
:101F8400AC1E00080000000000000000000000007B
:101F9400000000000000000000000000000000003D
:101FA400000000000000000000000000000000002D
:101FB400000000000000000000000000000000001D
:101FC400000000000000000000000000000000000D
:041FD4000000000009
:040000050800048566
:00000001FF
